{"abi":[{"type":"constructor","inputs":[],"stateMutability":"nonpayable"},{"type":"function","name":"addAdmin","inputs":[{"name":"_admin","type":"address","internalType":"address"}],"outputs":[],"stateMutability":"nonpayable"},{"type":"function","name":"addFunding","inputs":[{"name":"_zoneId","type":"uint256","internalType":"uint256"},{"name":"_amount","type":"uint256","internalType":"uint256"}],"outputs":[],"stateMutability":"nonpayable"},{"type":"function","name":"admins","inputs":[{"name":"","type":"address","internalType":"address"}],"outputs":[{"name":"","type":"bool","internalType":"bool"}],"stateMutability":"view"},{"type":"function","name":"createDisasterZone","inputs":[{"name":"_name","type":"string","internalType":"string"},{"name":"_latitude","type":"int256","internalType":"int256"},{"name":"_longitude","type":"int256","internalType":"int256"},{"name":"_radius","type":"uint256","internalType":"uint256"},{"name":"_initialFunding","type":"uint256","internalType":"uint256"}],"outputs":[{"name":"","type":"uint256","internalType":"uint256"}],"stateMutability":"nonpayable"},{"type":"function","name":"disasterZoneCounter","inputs":[],"outputs":[{"name":"","type":"uint256","internalType":"uint256"}],"stateMutability":"view"},{"type":"function","name":"disasterZones","inputs":[{"name":"","type":"uint256","internalType":"uint256"}],"outputs":[{"name":"id","type":"uint256","internalType":"uint256"},{"name":"name","type":"string","internalType":"string"},{"name":"latitude","type":"int256","internalType":"int256"},{"name":"longitude","type":"int256","internalType":"int256"},{"name":"radius","type":"uint256","internalType":"uint256"},{"name":"initialFunding","type":"uint256","internalType":"uint256"},{"name":"currentFunding","type":"uint256","internalType":"uint256"},{"name":"totalSpent","type":"uint256","internalType":"uint256"},{"name":"active","type":"bool","internalType":"bool"},{"name":"createdAt","type":"uint256","internalType":"uint256"},{"name":"createdBy","type":"address","internalType":"address"}],"stateMutability":"view"},{"type":"function","name":"emergencyPause","inputs":[{"name":"_zoneId","type":"uint256","internalType":"uint256"}],"outputs":[],"stateMutability":"nonpayable"},{"type":"function","name":"emergencyWithdraw","inputs":[{"name":"_zoneId","type":"uint256","internalType":"uint256"},{"name":"_amount","type":"uint256","internalType":"uint256"}],"outputs":[],"stateMutability":"nonpayable"},{"type":"function","name":"getDisasterZone","inputs":[{"name":"_zoneId","type":"uint256","internalType":"uint256"}],"outputs":[{"name":"","type":"tuple","internalType":"struct DisasterReliefSystem.DisasterZone","components":[{"name":"id","type":"uint256","internalType":"uint256"},{"name":"name","type":"string","internalType":"string"},{"name":"latitude","type":"int256","internalType":"int256"},{"name":"longitude","type":"int256","internalType":"int256"},{"name":"radius","type":"uint256","internalType":"uint256"},{"name":"initialFunding","type":"uint256","internalType":"uint256"},{"name":"currentFunding","type":"uint256","internalType":"uint256"},{"name":"totalSpent","type":"uint256","internalType":"uint256"},{"name":"active","type":"bool","internalType":"bool"},{"name":"createdAt","type":"uint256","internalType":"uint256"},{"name":"createdBy","type":"address","internalType":"address"}]}],"stateMutability":"view"},{"type":"function","name":"getDisasterZoneStats","inputs":[{"name":"_zoneId","type":"uint256","internalType":"uint256"}],"outputs":[{"name":"name","type":"string","internalType":"string"},{"name":"active","type":"bool","internalType":"bool"},{"name":"initialFunding","type":"uint256","internalType":"uint256"},{"name":"currentFunding","type":"uint256","internalType":"uint256"},{"name":"totalSpent","type":"uint256","internalType":"uint256"},{"name":"vendorCount","type":"uint256","internalType":"uint256"}],"stateMutability":"view"},{"type":"function","name":"getProofOfAid","inputs":[{"name":"_proofId","type":"uint256","internalType":"uint256"}],"outputs":[{"name":"","type":"tuple","internalType":"struct DisasterReliefSystem.ProofOfAid","components":[{"name":"id","type":"uint256","internalType":"uint256"},{"name":"voucherId","type":"uint256","internalType":"uint256"},{"name":"amount","type":"uint256","internalType":"uint256"},{"name":"vendor","type":"address","internalType":"address"},{"name":"beneficiary","type":"address","internalType":"address"},{"name":"ipfsHash","type":"string","internalType":"string"},{"name":"category","type":"string","internalType":"string"},{"name":"timestamp","type":"uint256","internalType":"uint256"},{"name":"verified","type":"bool","internalType":"bool"}]}],"stateMutability":"view"},{"type":"function","name":"getUserVouchers","inputs":[{"name":"_user","type":"address","internalType":"address"}],"outputs":[{"name":"","type":"uint256[]","internalType":"uint256[]"}],"stateMutability":"view"},{"type":"function","name":"getVendor","inputs":[{"name":"_vendorAddress","type":"address","internalType":"address"}],"outputs":[{"name":"","type":"tuple","internalType":"struct DisasterReliefSystem.Vendor","components":[{"name":"vendorAddress","type":"address","internalType":"address"},{"name":"name","type":"string","internalType":"string"},{"name":"location","type":"string","internalType":"string"},{"name":"disasterZoneId","type":"uint256","internalType":"uint256"},{"name":"ipfsKycHash","type":"string","internalType":"string"},{"name":"verified","type":"bool","internalType":"bool"},{"name":"totalRedeemed","type":"uint256","internalType":"uint256"},{"name":"transactionCount","type":"uint256","internalType":"uint256"},{"name":"reputationScore","type":"uint256","internalType":"uint256"},{"name":"registeredAt","type":"uint256","internalType":"uint256"}]}],"stateMutability":"view"},{"type":"function","name":"getVendorTransactions","inputs":[{"name":"_vendor","type":"address","internalType":"address"}],"outputs":[{"name":"","type":"uint256[]","internalType":"uint256[]"}],"stateMutability":"view"},{"type":"function","name":"getVoucher","inputs":[{"name":"_voucherId","type":"uint256","internalType":"uint256"}],"outputs":[{"name":"","type":"tuple","internalType":"struct DisasterReliefSystem.Voucher","components":[{"name":"id","type":"uint256","internalType":"uint256"},{"name":"beneficiary","type":"address","internalType":"address"},{"name":"amount","type":"uint256","internalType":"uint256"},{"name":"disasterZoneId","type":"uint256","internalType":"uint256"},{"name":"allowedCategories","type":"string[]","internalType":"string[]"},{"name":"createdAt","type":"uint256","internalType":"uint256"},{"name":"expiryTime","type":"uint256","internalType":"uint256"},{"name":"used","type":"bool","internalType":"bool"},{"name":"usedBy","type":"address","internalType":"address"},{"name":"usedAt","type":"uint256","internalType":"uint256"}]}],"stateMutability":"view"},{"type":"function","name":"getZoneVendors","inputs":[{"name":"_zoneId","type":"uint256","internalType":"uint256"}],"outputs":[{"name":"","type":"address[]","internalType":"address[]"}],"stateMutability":"view"},{"type":"function","name":"issueVoucher","inputs":[{"name":"_beneficiary","type":"address","internalType":"address"},{"name":"_amount","type":"uint256","internalType":"uint256"},{"name":"_disasterZoneId","type":"uint256","internalType":"uint256"},{"name":"_allowedCategories","type":"string[]","internalType":"string[]"},{"name":"_expiryDays","type":"uint256","internalType":"uint256"}],"outputs":[{"name":"","type":"uint256","internalType":"uint256"}],"stateMutability":"nonpayable"},{"type":"function","name":"owner","inputs":[],"outputs":[{"name":"","type":"address","internalType":"address"}],"stateMutability":"view"},{"type":"function","name":"proofCounter","inputs":[],"outputs":[{"name":"","type":"uint256","internalType":"uint256"}],"stateMutability":"view"},{"type":"function","name":"proofOfAids","inputs":[{"name":"","type":"uint256","internalType":"uint256"}],"outputs":[{"name":"id","type":"uint256","internalType":"uint256"},{"name":"voucherId","type":"uint256","internalType":"uint256"},{"name":"amount","type":"uint256","internalType":"uint256"},{"name":"vendor","type":"address","internalType":"address"},{"name":"beneficiary","type":"address","internalType":"address"},{"name":"ipfsHash","type":"string","internalType":"string"},{"name":"category","type":"string","internalType":"string"},{"name":"timestamp","type":"uint256","internalType":"uint256"},{"name":"verified","type":"bool","internalType":"bool"}],"stateMutability":"view"},{"type":"function","name":"redeemVoucher","inputs":[{"name":"_voucherId","type":"uint256","internalType":"uint256"},{"name":"_amount","type":"uint256","internalType":"uint256"},{"name":"_category","type":"string","internalType":"string"},{"name":"_ipfsHash","type":"string","internalType":"string"}],"outputs":[],"stateMutability":"nonpayable"},{"type":"function","name":"registerVendor","inputs":[{"name":"_vendorAddress","type":"address","internalType":"address"},{"name":"_name","type":"string","internalType":"string"},{"name":"_location","type":"string","internalType":"string"},{"name":"_disasterZoneId","type":"uint256","internalType":"uint256"},{"name":"_ipfsKycHash","type":"string","internalType":"string"}],"outputs":[],"stateMutability":"nonpayable"},{"type":"function","name":"removeAdmin","inputs":[{"name":"_admin","type":"address","internalType":"address"}],"outputs":[],"stateMutability":"nonpayable"},{"type":"function","name":"updateDisasterZoneStatus","inputs":[{"name":"_zoneId","type":"uint256","internalType":"uint256"},{"name":"_active","type":"bool","internalType":"bool"}],"outputs":[],"stateMutability":"nonpayable"},{"type":"function","name":"userVouchers","inputs":[{"name":"","type":"address","internalType":"address"},{"name":"","type":"uint256","internalType":"uint256"}],"outputs":[{"name":"","type":"uint256","internalType":"uint256"}],"stateMutability":"view"},{"type":"function","name":"vendorRegistry","inputs":[{"name":"","type":"address","internalType":"address"}],"outputs":[{"name":"vendorAddress","type":"address","internalType":"address"},{"name":"name","type":"string","internalType":"string"},{"name":"location","type":"string","internalType":"string"},{"name":"disasterZoneId","type":"uint256","internalType":"uint256"},{"name":"ipfsKycHash","type":"string","internalType":"string"},{"name":"verified","type":"bool","internalType":"bool"},{"name":"totalRedeemed","type":"uint256","internalType":"uint256"},{"name":"transactionCount","type":"uint256","internalType":"uint256"},{"name":"reputationScore","type":"uint256","internalType":"uint256"},{"name":"registeredAt","type":"uint256","internalType":"uint256"}],"stateMutability":"view"},{"type":"function","name":"vendorTransactions","inputs":[{"name":"","type":"address","internalType":"address"},{"name":"","type":"uint256","internalType":"uint256"}],"outputs":[{"name":"","type":"uint256","internalType":"uint256"}],"stateMutability":"view"},{"type":"function","name":"vendors","inputs":[{"name":"","type":"address","internalType":"address"}],"outputs":[{"name":"","type":"bool","internalType":"bool"}],"stateMutability":"view"},{"type":"function","name":"verifyProofOfAid","inputs":[{"name":"_proofId","type":"uint256","internalType":"uint256"}],"outputs":[],"stateMutability":"nonpayable"},{"type":"function","name":"verifyVendor","inputs":[{"name":"_vendorAddress","type":"address","internalType":"address"},{"name":"_disasterZoneId","type":"uint256","internalType":"uint256"}],"outputs":[],"stateMutability":"nonpayable"},{"type":"function","name":"voucherCounter","inputs":[],"outputs":[{"name":"","type":"uint256","internalType":"uint256"}],"stateMutability":"view"},{"type":"function","name":"vouchers","inputs":[{"name":"","type":"uint256","internalType":"uint256"}],"outputs":[{"name":"id","type":"uint256","internalType":"uint256"},{"name":"beneficiary","type":"address","internalType":"address"},{"name":"amount","type":"uint256","internalType":"uint256"},{"name":"disasterZoneId","type":"uint256","internalType":"uint256"},{"name":"createdAt","type":"uint256","internalType":"uint256"},{"name":"expiryTime","type":"uint256","internalType":"uint256"},{"name":"used","type":"bool","internalType":"bool"},{"name":"usedBy","type":"address","internalType":"address"},{"name":"usedAt","type":"uint256","internalType":"uint256"}],"stateMutability":"view"},{"type":"function","name":"zoneVendorList","inputs":[{"name":"","type":"uint256","internalType":"uint256"},{"name":"","type":"uint256","internalType":"uint256"}],"outputs":[{"name":"","type":"address","internalType":"address"}],"stateMutability":"view"},{"type":"function","name":"zoneVendors","inputs":[{"name":"","type":"uint256","internalType":"uint256"},{"name":"","type":"address","internalType":"address"}],"outputs":[{"name":"","type":"bool","internalType":"bool"}],"stateMutability":"view"},{"type":"event","name":"AdminAdded","inputs":[{"name":"admin","type":"address","indexed":true,"internalType":"address"},{"name":"addedBy","type":"address","indexed":true,"internalType":"address"}],"anonymous":false},{"type":"event","name":"AdminRemoved","inputs":[{"name":"admin","type":"address","indexed":true,"internalType":"address"},{"name":"removedBy","type":"address","indexed":true,"internalType":"address"}],"anonymous":false},{"type":"event","name":"DisasterZoneCreated","inputs":[{"name":"zoneId","type":"uint256","indexed":true,"internalType":"uint256"},{"name":"name","type":"string","indexed":false,"internalType":"string"},{"name":"latitude","type":"int256","indexed":false,"internalType":"int256"},{"name":"longitude","type":"int256","indexed":false,"internalType":"int256"},{"name":"radius","type":"uint256","indexed":false,"internalType":"uint256"},{"name":"funding","type":"uint256","indexed":false,"internalType":"uint256"},{"name":"creator","type":"address","indexed":true,"internalType":"address"}],"anonymous":false},{"type":"event","name":"FundsDeposited","inputs":[{"name":"zoneId","type":"uint256","indexed":true,"internalType":"uint256"},{"name":"amount","type":"uint256","indexed":false,"internalType":"uint256"},{"name":"depositor","type":"address","indexed":true,"internalType":"address"}],"anonymous":false},{"type":"event","name":"ProofOfAidSubmitted","inputs":[{"name":"proofId","type":"uint256","indexed":true,"internalType":"uint256"},{"name":"voucherId","type":"uint256","indexed":true,"internalType":"uint256"},{"name":"vendor","type":"address","indexed":true,"internalType":"address"},{"name":"ipfsHash","type":"string","indexed":false,"internalType":"string"},{"name":"category","type":"string","indexed":false,"internalType":"string"},{"name":"amount","type":"uint256","indexed":false,"internalType":"uint256"}],"anonymous":false},{"type":"event","name":"VendorRegistered","inputs":[{"name":"vendor","type":"address","indexed":true,"internalType":"address"},{"name":"zoneId","type":"uint256","indexed":true,"internalType":"uint256"},{"name":"name","type":"string","indexed":false,"internalType":"string"},{"name":"ipfsKycHash","type":"string","indexed":false,"internalType":"string"}],"anonymous":false},{"type":"event","name":"VendorVerified","inputs":[{"name":"vendor","type":"address","indexed":true,"internalType":"address"},{"name":"zoneId","type":"uint256","indexed":true,"internalType":"uint256"},{"name":"verifier","type":"address","indexed":true,"internalType":"address"}],"anonymous":false},{"type":"event","name":"VoucherIssued","inputs":[{"name":"voucherId","type":"uint256","indexed":true,"internalType":"uint256"},{"name":"beneficiary","type":"address","indexed":true,"internalType":"address"},{"name":"amount","type":"uint256","indexed":false,"internalType":"uint256"},{"name":"disasterZoneId","type":"uint256","indexed":true,"internalType":"uint256"},{"name":"allowedCategories","type":"string[]","indexed":false,"internalType":"string[]"}],"anonymous":false},{"type":"event","name":"VoucherRedeemed","inputs":[{"name":"voucherId","type":"uint256","indexed":true,"internalType":"uint256"},{"name":"vendor","type":"address","indexed":true,"internalType":"address"},{"name":"beneficiary","type":"address","indexed":true,"internalType":"address"},{"name":"amount","type":"uint256","indexed":false,"internalType":"uint256"},{"name":"category","type":"string","indexed":false,"internalType":"string"}],"anonymous":false}],"bytecode":{"object":"0x608060405234801561001057600080fd5b50600080546001600160a01b0319163390811782558152600460205260409020805460ff191660019081179091558080556002819055600355613b77806100586000396000f3fe608060405234801561001057600080fd5b50600436106102065760003560e01c8063804299931161011a578063b9711262116100ad578063ebc7d7a51161007c578063ebc7d7a5146105cc578063f434acf8146105df578063f82a5b8a146105ff578063f91ce77e14610612578063f9868c671461062557600080fd5b8063b971126214610558578063c69dfa4014610578578063d9eff0fe1461058b578063dd2208b11461059e57600080fd5b8063a22b9496116100e9578063a22b94961461050c578063ad3fbe301461051f578063b2e212be14610532578063b8fdaae71461054557600080fd5b806380429993146104665780638da5cb5b1461048f5780638f25ca3d146104ba57806391dd9f8d146104e257600080fd5b806327e30c361161019d578063429b62e51161016c578063429b62e51461040157806360e24efe1461042457806368c32ae0146104375780636d9f43701461044a578063704802751461045357600080fd5b806327e30c36146102eb5780632d211e951461031e5780633e97b43f1461033e5780634054e6d4146103f857600080fd5b80631785f53c116101d95780631785f53c1461028e5780631e703a43146102a15780631f276b6e146102b85780631fcf69d0146102cb57600080fd5b80630151f0511461020b578063038c8f7d146102205780630bc0f7d31461024e5780630cfa2fd81461026e575b600080fd5b61021e610219366004612ede565b610638565b005b61023361022e366004612f81565b610956565b60405161024596959493929190612fe0565b60405180910390f35b61026161025c36600461301c565b610ad7565b604051610245919061303e565b61028161027c366004612f81565b610d6a565b6040516102459190613161565b61021e61029c36600461301c565b610f39565b6102aa60015481565b604051908152602001610245565b61021e6102c6366004613211565b61103a565b6102de6102d9366004612f81565b6110e4565b6040516102459190613233565b61030e6102f936600461301c565b60056020526000908152604090205460ff1681565b6040519015158152602001610245565b61033161032c36600461301c565b6112ea565b60405161024591906132e6565b6103a861034c366004612f81565b6009602052600090815260409020805460018201546002830154600384015460058501546006860154600787015460089097015495966001600160a01b0395861696949593949293919260ff8216926101009092049091169089565b60408051998a526001600160a01b0398891660208b01528901969096526060880194909452608087019290925260a0860152151560c085015290911660e083015261010082015261012001610245565b6102aa60025481565b61030e61040f36600461301c565b60046020526000908152604090205460ff1681565b61021e61043236600461332a565b611356565b6102aa61044536600461335f565b61141a565b6102aa60035481565b61021e61046136600461301c565b61169f565b61047961047436600461301c565b6117c1565b6040516102459a999897969594939291906133bc565b6000546104a2906001600160a01b031681565b6040516001600160a01b039091168152602001610245565b6104cd6104c8366004612f81565b6119b5565b6040516102459998979695949392919061343f565b6104f56104f0366004612f81565b611b20565b6040516102459b9a999897969594939291906134b3565b6102aa61051a366004613520565b611c0c565b61021e61052d366004612f81565b611c3d565b6104a2610540366004613211565b611c9c565b61021e610553366004613211565b611cd4565b61056b610566366004612f81565b611df6565b604051610245919061354a565b6102aa61058636600461358b565b611e61565b61021e61059936600461367a565b612211565b61030e6105ac3660046136f1565b600660209081526000928352604080842090915290825290205460ff1681565b61021e6105da366004612f81565b612836565b6105f26105ed366004612f81565b612943565b604051610245919061371d565b61033161060d36600461301c565b612ad7565b6102aa610620366004613520565b612b41565b61021e610633366004613520565b612b5d565b3360009081526004602052604090205460ff168061066057506000546001600160a01b031633145b6106855760405162461bcd60e51b815260040161067c906137c3565b60405180910390fd5b600082815260076020526040902060080154829060ff166106b85760405162461bcd60e51b815260040161067c906137e9565b6001600160a01b0386166107075760405162461bcd60e51b8152602060048201526016602482015275496e76616c69642076656e646f72206164647265737360501b604482015260640161067c565b600085511161074e5760405162461bcd60e51b8152602060048201526013602482015272496e76616c69642076656e646f72206e616d6560681b604482015260640161067c565b6001600160a01b03861660009081526005602052604090205460ff16156107b75760405162461bcd60e51b815260206004820152601960248201527f56656e646f7220616c7265616479207265676973746572656400000000000000604482015260640161067c565b60408051610140810182526001600160a01b0388811680835260208084018a81528486018a90526060850189905260808501889052600060a0860181905260c0860181905260e086018190526032610100870152426101208701529283526008909152939020825181546001600160a01b03191692169190911781559151909190600182019061084790826138a9565b506040820151600282019061085c90826138a9565b50606082015160038201556080820151600482019061087b90826138a9565b5060a08201516005808301805492151560ff1993841617905560c0840151600684015560e084015160078401556101008401516008840155610120909301516009909201919091556001600160a01b03881660008181526020938452604080822080549094166001908117909455878252600b855280822080549485018155825293902090910180546001600160a01b0319168217905590518491907f1488e59578e73d8fc0a0dd3d7a9797dfc2b8cf85259d7dcebafc71ad9c5ff82d906109469089908790613969565b60405180910390a3505050505050565b606060008060008060008060076000898152602001908152602001600020604051806101600160405290816000820154815260200160018201805461099a90613820565b80601f01602080910402602001604051908101604052809291908181526020018280546109c690613820565b8015610a135780601f106109e857610100808354040283529160200191610a13565b820191906000526020600020905b8154815290600101906020018083116109f657829003601f168201915b5050509183525050600282015460208083019190915260038301546040808401919091526004840154606084015260058401546080840152600684015460a080850191909152600785015460c080860191909152600886015460ff16151560e080870191909152600987015461010080880191909152600a909701546001600160a01b03166101209096019590955286840151958701519187015190870151969094015160009e8f52600b9093529c2054929c919a50929850919650945092505050565b610b3860405180610140016040528060006001600160a01b0316815260200160608152602001606081526020016000815260200160608152602001600015158152602001600081526020016000815260200160008152602001600081525090565b6001600160a01b03808316600090815260086020908152604091829020825161014081019093528054909316825260018301805492939291840191610b7c90613820565b80601f0160208091040260200160405190810160405280929190818152602001828054610ba890613820565b8015610bf55780601f10610bca57610100808354040283529160200191610bf5565b820191906000526020600020905b815481529060010190602001808311610bd857829003601f168201915b50505050508152602001600282018054610c0e90613820565b80601f0160208091040260200160405190810160405280929190818152602001828054610c3a90613820565b8015610c875780601f10610c5c57610100808354040283529160200191610c87565b820191906000526020600020905b815481529060010190602001808311610c6a57829003601f168201915b5050505050815260200160038201548152602001600482018054610caa90613820565b80601f0160208091040260200160405190810160405280929190818152602001828054610cd690613820565b8015610d235780601f10610cf857610100808354040283529160200191610d23565b820191906000526020600020905b815481529060010190602001808311610d0657829003601f168201915b5050509183525050600582015460ff161515602082015260068201546040820152600782015460608201526008820154608082015260099091015460a09091015292915050565b610dd46040518061014001604052806000815260200160006001600160a01b03168152602001600081526020016000815260200160608152602001600081526020016000815260200160001515815260200160006001600160a01b03168152602001600081525090565b60008281526009602090815260408083208151610140810183528154815260018201546001600160a01b03168185015260028201548184015260038201546060820152600482018054845181870281018701909552808552919592946080870194939192919084015b82821015610ee9578382906000526020600020018054610e5c90613820565b80601f0160208091040260200160405190810160405280929190818152602001828054610e8890613820565b8015610ed55780601f10610eaa57610100808354040283529160200191610ed5565b820191906000526020600020905b815481529060010190602001808311610eb857829003601f168201915b505050505081526020019060010190610e3d565b505050908252506005820154602082015260068201546040820152600782015460ff81161515606083015261010090046001600160a01b0316608082015260089091015460a09091015292915050565b6000546001600160a01b03163314610f635760405162461bcd60e51b815260040161067c90613997565b6000546001600160a01b0390811690821603610fb75760405162461bcd60e51b815260206004820152601360248201527221b0b73737ba103932b6b7bb329037bbb732b960691b604482015260640161067c565b6001600160a01b03811660009081526004602052604090205460ff16610fef5760405162461bcd60e51b815260040161067c906137c3565b6001600160a01b038116600081815260046020526040808220805460ff19169055513392917fdb9d5d31320daf5bc7181d565b6da4d12e30f0f4d5aa324a992426c14a1d19ce91a350565b6000546001600160a01b031633146110645760405162461bcd60e51b815260040161067c90613997565b6000828152600760205260409020600601548111156110ba5760405162461bcd60e51b8152602060048201526012602482015271496e73756666696369656e742066756e647360701b604482015260640161067c565b600082815260076020526040812060060180548392906110db9084906139dd565b90915550505050565b61114760405180610120016040528060008152602001600081526020016000815260200160006001600160a01b0316815260200160006001600160a01b031681526020016060815260200160608152602001600081526020016000151581525090565b6000828152600a60209081526040918290208251610120810184528154815260018201549281019290925260028101549282019290925260038201546001600160a01b039081166060830152600483015416608082015260058201805491929160a0840191906111b690613820565b80601f01602080910402602001604051908101604052809291908181526020018280546111e290613820565b801561122f5780601f106112045761010080835404028352916020019161122f565b820191906000526020600020905b81548152906001019060200180831161121257829003601f168201915b5050505050815260200160068201805461124890613820565b80601f016020809104026020016040519081016040528092919081815260200182805461127490613820565b80156112c15780601f10611296576101008083540402835291602001916112c1565b820191906000526020600020905b8154815290600101906020018083116112a457829003601f168201915b50505091835250506007820154602082015260089091015460ff16151560409091015292915050565b6001600160a01b0381166000908152600c602090815260409182902080548351818402810184019094528084526060939283018282801561134a57602002820191906000526020600020905b815481526020019060010190808311611336575b50505050509050919050565b3360009081526004602052604090205460ff168061137e57506000546001600160a01b031633145b61139a5760405162461bcd60e51b815260040161067c906137c3565b60008281526007602052604081205490036113f75760405162461bcd60e51b815260206004820152601c60248201527f4469736173746572207a6f6e6520646f6573206e6f7420657869737400000000604482015260640161067c565b600091825260076020526040909120600801805460ff1916911515919091179055565b3360009081526004602052604081205460ff168061144257506000546001600160a01b031633145b61145e5760405162461bcd60e51b815260040161067c906137c3565b60008651116114af5760405162461bcd60e51b815260206004820152601a60248201527f496e76616c6964206469736173746572207a6f6e65206e616d65000000000000604482015260640161067c565b600083116114f05760405162461bcd60e51b815260206004820152600e60248201526d496e76616c69642072616469757360901b604482015260640161067c565b60018054604080516101608101825282815260208082018b81528284018b9052606083018a90526080830189905260a0830188905260c08301889052600060e08401819052610100840187905242610120850152336101408501528581526007909252929020815181559151929390929082019061156e90826138a9565b5060408201516002820155606082015160038201556080820151600482015560a0820151600582015560c0820151600682015560e0820151600782015561010082015160088201805460ff1916911515919091179055610120820151600982015561014090910151600a90910180546001600160a01b0319166001600160a01b0390921691909117905560018054906000611608836139f0565b9190505550336001600160a01b0316817f3092fd7c8529f73b0752ad1f7c0842e17401e7f8c1cae3cd22f072bb8a60fdc7898989898960405161164f959493929190613a09565b60405180910390a3821561169557604051838152339082907f173e65f112f35b3978d871d854bb35f9d5208d7a65fe387d0ef353d0d2b64e7b9060200160405180910390a35b9695505050505050565b6000546001600160a01b031633146116c95760405162461bcd60e51b815260040161067c90613997565b6001600160a01b0381166117175760405162461bcd60e51b8152602060048201526015602482015274496e76616c69642061646d696e206164647265737360581b604482015260640161067c565b6001600160a01b03811660009081526004602052604090205460ff16156117735760405162461bcd60e51b815260206004820152601060248201526f20b63932b0b23c9030b71030b236b4b760811b604482015260640161067c565b6001600160a01b038116600081815260046020526040808220805460ff19166001179055513392917fbf3f493c772c8c283fd124432c2d0f539ab343faa04258fe88e52912d36b102b91a350565b600860205260009081526040902080546001820180546001600160a01b0390921692916117ed90613820565b80601f016020809104026020016040519081016040528092919081815260200182805461181990613820565b80156118665780601f1061183b57610100808354040283529160200191611866565b820191906000526020600020905b81548152906001019060200180831161184957829003601f168201915b50505050509080600201805461187b90613820565b80601f01602080910402602001604051908101604052809291908181526020018280546118a790613820565b80156118f45780601f106118c9576101008083540402835291602001916118f4565b820191906000526020600020905b8154815290600101906020018083116118d757829003601f168201915b50505050509080600301549080600401805461190f90613820565b80601f016020809104026020016040519081016040528092919081815260200182805461193b90613820565b80156119885780601f1061195d57610100808354040283529160200191611988565b820191906000526020600020905b81548152906001019060200180831161196b57829003601f168201915b5050506005840154600685015460078601546008870154600990970154959660ff9093169591945092508a565b600a602052600090815260409020805460018201546002830154600384015460048501546005860180549596949593946001600160a01b039384169493909216926119ff90613820565b80601f0160208091040260200160405190810160405280929190818152602001828054611a2b90613820565b8015611a785780601f10611a4d57610100808354040283529160200191611a78565b820191906000526020600020905b815481529060010190602001808311611a5b57829003601f168201915b505050505090806006018054611a8d90613820565b80601f0160208091040260200160405190810160405280929190818152602001828054611ab990613820565b8015611b065780601f10611adb57610100808354040283529160200191611b06565b820191906000526020600020905b815481529060010190602001808311611ae957829003601f168201915b50505050600783015460089093015491929160ff16905089565b60076020526000908152604090208054600182018054919291611b4290613820565b80601f0160208091040260200160405190810160405280929190818152602001828054611b6e90613820565b8015611bbb5780601f10611b9057610100808354040283529160200191611bbb565b820191906000526020600020905b815481529060010190602001808311611b9e57829003601f168201915b50505060028401546003850154600486015460058701546006880154600789015460088a015460098b0154600a909b0154999a969995985093965091949093919260ff16916001600160a01b03168b565b600d6020528160005260406000208181548110611c2857600080fd5b90600052602060002001600091509150505481565b3360009081526004602052604090205460ff1680611c6557506000546001600160a01b031633145b611c815760405162461bcd60e51b815260040161067c906137c3565b6000908152600760205260409020600801805460ff19169055565b600b6020528160005260406000208181548110611cb857600080fd5b6000918252602090912001546001600160a01b03169150829050565b3360009081526004602052604090205460ff1680611cfc57506000546001600160a01b031633145b611d185760405162461bcd60e51b815260040161067c906137c3565b600082815260076020526040902060080154829060ff16611d4b5760405162461bcd60e51b815260040161067c906137e9565b60008211611d945760405162461bcd60e51b8152602060048201526016602482015275125b9d985b1a5908199d5b991a5b99c8185b5bdd5b9d60521b604482015260640161067c565b60008381526007602052604081206006018054849290611db5908490613a40565b9091555050604051828152339084907f173e65f112f35b3978d871d854bb35f9d5208d7a65fe387d0ef353d0d2b64e7b9060200160405180910390a3505050565b6000818152600b602090815260409182902080548351818402810184019094528084526060939283018282801561134a57602002820191906000526020600020905b81546001600160a01b03168152600190910190602001808311611e385750505050509050919050565b3360009081526004602052604081205460ff1680611e8957506000546001600160a01b031633145b611ea55760405162461bcd60e51b815260040161067c906137c3565b600084815260076020526040902060080154849060ff16611ed85760405162461bcd60e51b815260040161067c906137e9565b6001600160a01b038716611f2e5760405162461bcd60e51b815260206004820152601b60248201527f496e76616c69642062656e656669636961727920616464726573730000000000604482015260640161067c565b60008611611f775760405162461bcd60e51b8152602060048201526016602482015275125b9d985b1a59081d9bdd58da195c88185b5bdd5b9d60521b604482015260640161067c565b6000845111611fc85760405162461bcd60e51b815260206004820152601f60248201527f4d757374207370656369667920616c6c6f7765642063617465676f7269657300604482015260640161067c565b6000858152600760205260409020600601548611156120355760405162461bcd60e51b815260206004820152602360248201527f496e73756666696369656e742066756e647320696e206469736173746572207a6044820152626f6e6560e81b606482015260840161067c565b60025460006120478562015180613a53565b6120519042613a40565b60408051610140810182528481526001600160a01b038c811660208084019182528385018e8152606085018e8152608086018e81524260a088015260c08701899052600060e08801819052610100880181905261012088018190528b815260098552979097208651815593516001850180546001600160a01b0319169190961617909455516002830155915160038201559251805194955091936120fb9260048501920190612d46565b5060a0820151600582015560c0820151600682015560e0820151600782018054610100808601516001600160a81b0319909216931515610100600160a81b031916939093176001600160a01b039182169093029290921790556101209092015160089091015589166000908152600c6020908152604082208054600181018255908352908220018390556002805491612193836139f0565b9091555050600087815260076020526040812060060180548a92906121b99084906139dd565b9250508190555086896001600160a01b0316837f2e215e6a50c668ddd7f3c3e69d301d1810046c636f28f9c8949b133f5096408f8b8a6040516121fd929190613a6a565b60405180910390a450979650505050505050565b3360009081526005602052604090205460ff16801561224257503360009081526008602052604090206005015460ff165b6122865760405162461bcd60e51b81526020600482015260156024820152742737ba1030903b32b934b334b2b2103b32b73237b960591b604482015260640161067c565b600084815260096020908152604080832060030154808452600683528184203385529092529091205460ff166122fe5760405162461bcd60e51b815260206004820152601c60248201527f4e6f7420617574686f72697a656420666f722074686973207a6f6e6500000000604482015260640161067c565b6000858152600960205260409020600781015460ff16156123585760405162461bcd60e51b8152602060048201526014602482015273159bdd58da195c88185b1c9958591e481d5cd95960621b604482015260640161067c565b806006015442111561239e5760405162461bcd60e51b815260206004820152600f60248201526e159bdd58da195c88195e1c1a5c9959608a1b604482015260640161067c565b80600201548511156123f25760405162461bcd60e51b815260206004820152601c60248201527f416d6f756e74206578636565647320766f75636865722076616c756500000000604482015260640161067c565b60008351116124385760405162461bcd60e51b815260206004820152601260248201527112541194c81a185cda081c995c5d5a5c995960721b604482015260640161067c565b6125158482600401805480602002602001604051908101604052809291908181526020016000905b8282101561250c57838290600052602060002001805461247f90613820565b80601f01602080910402602001604051908101604052809291908181526020018280546124ab90613820565b80156124f85780601f106124cd576101008083540402835291602001916124f8565b820191906000526020600020905b8154815290600101906020018083116124db57829003601f168201915b505050505081526020019060010190612460565b50505050612ce3565b6125585760405162461bcd60e51b815260206004820152601460248201527310d85d1959dbdc9e481b9bdd08185b1b1bddd95960621b604482015260640161067c565b60018160070160006101000a81548160ff021916908315150217905550338160070160016101000a8154816001600160a01b0302191690836001600160a01b0316021790555042816008018190555060006003549050604051806101200160405280828152602001888152602001878152602001336001600160a01b031681526020018360010160009054906101000a90046001600160a01b03166001600160a01b0316815260200185815260200186815260200142815260200160001515815250600a600083815260200190815260200160002060008201518160000155602082015181600101556040820151816002015560608201518160030160006101000a8154816001600160a01b0302191690836001600160a01b0316021790555060808201518160040160006101000a8154816001600160a01b0302191690836001600160a01b0316021790555060a08201518160050190816126ba91906138a9565b5060c082015160068201906126cf90826138a9565b5060e08201516007820155610100909101516008909101805460ff1916911515919091179055336000908152600d6020908152604082208054600181018255908352908220018290556003805491612726836139f0565b90915550503360009081526008602052604081206006810180549192899261274f908490613a40565b9091555050600781018054906000612766836139f0565b9091555050600383015460009081526007602081905260408220018054899290612791908490613a40565b909155505060018301546040516001600160a01b039091169033908a907f67368b3e50de43d46ee44c0a727259cbed92ba1e60eaf36351af117c45fe7ef9906127dd908c908c90613ad4565b60405180910390a4336001600160a01b031688837fa830173fe9d24b3c87d64823c48ead1f2eff98afc0ea5b8bbc12bea4b3b418e5888a8c60405161282493929190613af5565b60405180910390a45050505050505050565b3360009081526004602052604090205460ff168061285e57506000546001600160a01b031633145b61287a5760405162461bcd60e51b815260040161067c906137c3565b6000818152600a602052604081205490036128ce5760405162461bcd60e51b8152602060048201526014602482015273141c9bdbd988191bd95cc81b9bdd08195e1a5cdd60621b604482015260640161067c565b6000818152600a602090815260408083206008808201805460ff191660011790556003909101546001600160a01b0316808552928190529220909101546064111561293f576001600160a01b03811660009081526008602081905260408220018054600192906110db908490613a40565b5050565b6129ab60405180610160016040528060008152602001606081526020016000815260200160008152602001600081526020016000815260200160008152602001600081526020016000151581526020016000815260200160006001600160a01b031681525090565b6007600083815260200190815260200160002060405180610160016040529081600082015481526020016001820180546129e490613820565b80601f0160208091040260200160405190810160405280929190818152602001828054612a1090613820565b8015612a5d5780601f10612a3257610100808354040283529160200191612a5d565b820191906000526020600020905b815481529060010190602001808311612a4057829003601f168201915b505050918352505060028201546020820152600382015460408201526004820154606082015260058201546080820152600682015460a0820152600782015460c0820152600882015460ff16151560e08201526009820154610100820152600a909101546001600160a01b03166101209091015292915050565b6001600160a01b0381166000908152600d602090815260409182902080548351818402810184019094528084526060939283018282801561134a57602002820191906000526020600020908154815260200190600101908083116113365750505050509050919050565b600c6020528160005260406000208181548110611c2857600080fd5b3360009081526004602052604090205460ff1680612b8557506000546001600160a01b031633145b612ba15760405162461bcd60e51b815260040161067c906137c3565b6001600160a01b03821660009081526005602052604090205460ff16612c015760405162461bcd60e51b815260206004820152601560248201527415995b991bdc881b9bdd081c9959da5cdd195c9959605a1b604482015260640161067c565b6001600160a01b0382166000908152600860205260409020600301548114612c6b5760405162461bcd60e51b815260206004820152601760248201527f56656e646f72206e6f7420696e2074686973207a6f6e65000000000000000000604482015260640161067c565b6001600160a01b03821660008181526008602090815260408083206005018054600160ff19918216811790925586855260068452828520868652909352818420805490931617909155513392849290917f68c259516062d870ae175c081d7d0961dc9e51c0c65ce3014dc6de92e8bdcdc39190a45050565b6000805b8251811015612d3a57828181518110612d0257612d02613b2b565b602002602001015180519060200120848051906020012003612d28576001915050612d40565b80612d32816139f0565b915050612ce7565b50600090505b92915050565b828054828255906000526020600020908101928215612d8c579160200282015b82811115612d8c5782518290612d7c90826138a9565b5091602001919060010190612d66565b50612d98929150612d9c565b5090565b80821115612d98576000612db08282612db9565b50600101612d9c565b508054612dc590613820565b6000825580601f10612dd5575050565b601f016020900490600052602060002090810190612df39190612df6565b50565b5b80821115612d985760008155600101612df7565b80356001600160a01b0381168114612e2257600080fd5b919050565b634e487b7160e01b600052604160045260246000fd5b604051601f8201601f1916810167ffffffffffffffff81118282101715612e6657612e66612e27565b604052919050565b600082601f830112612e7f57600080fd5b813567ffffffffffffffff811115612e9957612e99612e27565b612eac601f8201601f1916602001612e3d565b818152846020838601011115612ec157600080fd5b816020850160208301376000918101602001919091529392505050565b600080600080600060a08688031215612ef657600080fd5b612eff86612e0b565b9450602086013567ffffffffffffffff80821115612f1c57600080fd5b612f2889838a01612e6e565b95506040880135915080821115612f3e57600080fd5b612f4a89838a01612e6e565b9450606088013593506080880135915080821115612f6757600080fd5b50612f7488828901612e6e565b9150509295509295909350565b600060208284031215612f9357600080fd5b5035919050565b6000815180845260005b81811015612fc057602081850181015186830182015201612fa4565b506000602082860101526020601f19601f83011685010191505092915050565b60c081526000612ff360c0830189612f9a565b96151560208301525060408101949094526060840192909252608083015260a090910152919050565b60006020828403121561302e57600080fd5b61303782612e0b565b9392505050565b602081526130586020820183516001600160a01b03169052565b60006020830151610140806040850152613076610160850183612f9a565b91506040850151601f19808685030160608701526130948483612f9a565b93506060870151608087015260808701519150808685030160a0870152506130bc8382612f9a565b92505060a08501516130d260c086018215159052565b5060c085015160e0858101919091528501516101008086019190915285015161012080860191909152909401519390920192909252919050565b600081518084526020808501808196508360051b8101915082860160005b85811015613154578284038952613142848351612f9a565b9885019893509084019060010161312a565b5091979650505050505050565b60208152815160208201526000602083015161318860408401826001600160a01b03169052565b50604083015160608301526060830151608083015260808301516101408060a08501526131b961016085018361310c565b915060a085015160c085015260c085015160e085015260e08501516101006131e48187018315159052565b8601519050610120613200868201836001600160a01b03169052565b959095015193019290925250919050565b6000806040838503121561322457600080fd5b50508035926020909101359150565b602081528151602082015260208201516040820152604082015160608201526000606083015161326e60808401826001600160a01b03169052565b5060808301516001600160a01b03811660a08401525060a08301516101208060c08501526132a0610140850183612f9a565b915060c0850151601f198584030160e08601526132bd8382612f9a565b60e0870151610100878101919091528701518015158488015290935090505b5090949350505050565b6020808252825182820181905260009190848201906040850190845b8181101561331e57835183529284019291840191600101613302565b50909695505050505050565b6000806040838503121561333d57600080fd5b823591506020830135801515811461335457600080fd5b809150509250929050565b600080600080600060a0868803121561337757600080fd5b853567ffffffffffffffff81111561338e57600080fd5b61339a88828901612e6e565b9860208801359850604088013597606081013597506080013595509350505050565b6001600160a01b038b168152610140602082018190526000906133e18382018d612f9a565b905082810360408401526133f5818c612f9a565b9050896060840152828103608084015261340f818a612f9a565b97151560a0840152505060c081019490945260e08401929092526101008301526101209091015295945050505050565b89815260208101899052604081018890526001600160a01b0387811660608301528616608082015261012060a0820181905260009061348083820188612f9a565b905082810360c08401526134948187612f9a565b60e0840195909552505090151561010090910152979650505050505050565b60006101608d83528060208401526134cd8184018e612f9a565b604084019c909c5250506060810198909852608088019690965260a087019490945260c086019290925260e085015215156101008401526101208301526001600160a01b03166101409091015292915050565b6000806040838503121561353357600080fd5b61353c83612e0b565b946020939093013593505050565b6020808252825182820181905260009190848201906040850190845b8181101561331e5783516001600160a01b031683529284019291840191600101613566565b600080600080600060a086880312156135a357600080fd5b6135ac86612e0b565b9450602080870135945060408701359350606087013567ffffffffffffffff808211156135d857600080fd5b818901915089601f8301126135ec57600080fd5b8135818111156135fe576135fe612e27565b8060051b61360d858201612e3d565b918252838101850191858101908d84111561362757600080fd5b86860192505b83831015613663578235858111156136455760008081fd5b6136538f89838a0101612e6e565b835250918601919086019061362d565b9a9d999c50979a6080013598975050505050505050565b6000806000806080858703121561369057600080fd5b8435935060208501359250604085013567ffffffffffffffff808211156136b657600080fd5b6136c288838901612e6e565b935060608701359150808211156136d857600080fd5b506136e587828801612e6e565b91505092959194509250565b6000806040838503121561370457600080fd5b8235915061371460208401612e0b565b90509250929050565b602081528151602082015260006020830151610160806040850152613746610180850183612f9a565b91506040850151606085015260608501516080850152608085015160a085015260a085015160c085015260c085015160e085015260e085015161010081818701528087015191505061012061379e8187018315159052565b860151610140868101919091528601516001600160a01b0381168387015290506132dc565b6020808252600c908201526b2737ba1030b71030b236b4b760a11b604082015260600190565b60208082526018908201527f4469736173746572207a6f6e65206e6f74206163746976650000000000000000604082015260600190565b600181811c9082168061383457607f821691505b60208210810361385457634e487b7160e01b600052602260045260246000fd5b50919050565b601f8211156138a457600081815260208120601f850160051c810160208610156138815750805b601f850160051c820191505b818110156138a05782815560010161388d565b5050505b505050565b815167ffffffffffffffff8111156138c3576138c3612e27565b6138d7816138d18454613820565b8461385a565b602080601f83116001811461390c57600084156138f45750858301515b600019600386901b1c1916600185901b1785556138a0565b600085815260208120601f198616915b8281101561393b5788860151825594840194600190910190840161391c565b50858210156139595787850151600019600388901b60f8161c191681555b5050505050600190811b01905550565b60408152600061397c6040830185612f9a565b828103602084015261398e8185612f9a565b95945050505050565b6020808252601690820152752737ba103a34329031b7b73a3930b1ba1037bbb732b960511b604082015260600190565b634e487b7160e01b600052601160045260246000fd5b81810381811115612d4057612d406139c7565b600060018201613a0257613a026139c7565b5060010190565b60a081526000613a1c60a0830188612f9a565b90508560208301528460408301528360608301528260808301529695505050505050565b80820180821115612d4057612d406139c7565b8082028115828204841417612d4057612d406139c7565b600060408201848352602060408185015281855180845260608601915060608160051b870101935082870160005b82811015613ac657605f19888703018452613ab4868351612f9a565b95509284019290840190600101613a98565b509398975050505050505050565b828152604060208201526000613aed6040830184612f9a565b949350505050565b606081526000613b086060830186612f9a565b8281036020840152613b1a8186612f9a565b915050826040830152949350505050565b634e487b7160e01b600052603260045260246000fdfea2646970667358221220fcf949fa643b13c604ab495236792764c60704f3731edd01870aa4a0bd1264f364736f6c63430008130033","linkReferences":{}},"methodIdentifiers":{"addAdmin(address)":"70480275","addFunding(uint256,uint256)":"b8fdaae7","admins(address)":"429b62e5","createDisasterZone(string,int256,int256,uint256,uint256)":"68c32ae0","disasterZoneCounter()":"1e703a43","disasterZones(uint256)":"91dd9f8d","emergencyPause(uint256)":"ad3fbe30","emergencyWithdraw(uint256,uint256)":"1f276b6e","getDisasterZone(uint256)":"f434acf8","getDisasterZoneStats(uint256)":"038c8f7d","getProofOfAid(uint256)":"1fcf69d0","getUserVouchers(address)":"2d211e95","getVendor(address)":"0bc0f7d3","getVendorTransactions(address)":"f82a5b8a","getVoucher(uint256)":"0cfa2fd8","getZoneVendors(uint256)":"b9711262","issueVoucher(address,uint256,uint256,string[],uint256)":"c69dfa40","owner()":"8da5cb5b","proofCounter()":"6d9f4370","proofOfAids(uint256)":"8f25ca3d","redeemVoucher(uint256,uint256,string,string)":"d9eff0fe","registerVendor(address,string,string,uint256,string)":"0151f051","removeAdmin(address)":"1785f53c","updateDisasterZoneStatus(uint256,bool)":"60e24efe","userVouchers(address,uint256)":"f91ce77e","vendorRegistry(address)":"80429993","vendorTransactions(address,uint256)":"a22b9496","vendors(address)":"27e30c36","verifyProofOfAid(uint256)":"ebc7d7a5","verifyVendor(address,uint256)":"f9868c67","voucherCounter()":"4054e6d4","vouchers(uint256)":"3e97b43f","zoneVendorList(uint256,uint256)":"b2e212be","zoneVendors(uint256,address)":"dd2208b1"},"id":20}