{"abi":[{"type":"constructor","inputs":[],"stateMutability":"nonpayable"},{"type":"function","name":"allowance","inputs":[{"name":"","type":"address","internalType":"address"},{"name":"","type":"address","internalType":"address"}],"outputs":[{"name":"","type":"uint256","internalType":"uint256"}],"stateMutability":"view"},{"type":"function","name":"approve","inputs":[{"name":"spender","type":"address","internalType":"address"},{"name":"amount","type":"uint256","internalType":"uint256"}],"outputs":[{"name":"","type":"bool","internalType":"bool"}],"stateMutability":"nonpayable"},{"type":"function","name":"balanceOf","inputs":[{"name":"","type":"address","internalType":"address"}],"outputs":[{"name":"","type":"uint256","internalType":"uint256"}],"stateMutability":"view"},{"type":"function","name":"decimals","inputs":[],"outputs":[{"name":"","type":"uint8","internalType":"uint8"}],"stateMutability":"view"},{"type":"function","name":"faucet","inputs":[],"outputs":[],"stateMutability":"nonpayable"},{"type":"function","name":"mint","inputs":[{"name":"to","type":"address","internalType":"address"},{"name":"amount","type":"uint256","internalType":"uint256"}],"outputs":[],"stateMutability":"nonpayable"},{"type":"function","name":"name","inputs":[],"outputs":[{"name":"","type":"string","internalType":"string"}],"stateMutability":"view"},{"type":"function","name":"symbol","inputs":[],"outputs":[{"name":"","type":"string","internalType":"string"}],"stateMutability":"view"},{"type":"function","name":"totalSupply","inputs":[],"outputs":[{"name":"","type":"uint256","internalType":"uint256"}],"stateMutability":"view"},{"type":"function","name":"transfer","inputs":[{"name":"to","type":"address","internalType":"address"},{"name":"amount","type":"uint256","internalType":"uint256"}],"outputs":[{"name":"","type":"bool","internalType":"bool"}],"stateMutability":"nonpayable"},{"type":"function","name":"transferFrom","inputs":[{"name":"from","type":"address","internalType":"address"},{"name":"to","type":"address","internalType":"address"},{"name":"amount","type":"uint256","internalType":"uint256"}],"outputs":[{"name":"","type":"bool","internalType":"bool"}],"stateMutability":"nonpayable"},{"type":"event","name":"Approval","inputs":[{"name":"owner","type":"address","indexed":true,"internalType":"address"},{"name":"spender","type":"address","indexed":true,"internalType":"address"},{"name":"value","type":"uint256","indexed":false,"internalType":"uint256"}],"anonymous":false},{"type":"event","name":"Transfer","inputs":[{"name":"from","type":"address","indexed":true,"internalType":"address"},{"name":"to","type":"address","indexed":true,"internalType":"address"},{"name":"value","type":"uint256","indexed":false,"internalType":"uint256"}],"anonymous":false}],"bytecode":{"object":"0x60c0604052600f60809081526e55534420436f696e20284d6f636b2960881b60a05260009062000030908262000191565b506040805180820190915260048152635553444360e01b60208201526001906200005b908262000191565b506002805460ff191660061790553480156200007657600080fd5b506002546200008a9060ff16600a62000372565b6200009990620f42406200038a565b600381905533600081815260046020908152604080832085905551938452919290917fddf252ad1be2c89b69c2b068fc378daa952ba7f163c4a11628f55a4df523b3ef910160405180910390a3620003a4565b634e487b7160e01b600052604160045260246000fd5b600181811c908216806200011757607f821691505b6020821081036200013857634e487b7160e01b600052602260045260246000fd5b50919050565b601f8211156200018c57600081815260208120601f850160051c81016020861015620001675750805b601f850160051c820191505b81811015620001885782815560010162000173565b5050505b505050565b81516001600160401b03811115620001ad57620001ad620000ec565b620001c581620001be845462000102565b846200013e565b602080601f831160018114620001fd5760008415620001e45750858301515b600019600386901b1c1916600185901b17855562000188565b600085815260208120601f198616915b828110156200022e578886015182559484019460019091019084016200020d565b50858210156200024d5787850151600019600388901b60f8161c191681555b5050505050600190811b01905550565b634e487b7160e01b600052601160045260246000fd5b600181815b80851115620002b45781600019048211156200029857620002986200025d565b80851615620002a657918102915b93841c939080029062000278565b509250929050565b600082620002cd575060016200036c565b81620002dc575060006200036c565b8160018114620002f55760028114620003005762000320565b60019150506200036c565b60ff8411156200031457620003146200025d565b50506001821b6200036c565b5060208310610133831016604e8410600b841016171562000345575081810a6200036c565b62000351838362000273565b80600019048211156200036857620003686200025d565b0290505b92915050565b60006200038360ff841683620002bc565b9392505050565b80820281158282048414176200036c576200036c6200025d565b61093d80620003b46000396000f3fe608060405234801561001057600080fd5b50600436106100a95760003560e01c806340c10f191161007157806340c10f191461013857806370a082311461014d57806395d89b411461016d578063a9059cbb14610175578063dd62ed3e14610188578063de5f72fd146101b357600080fd5b806306fdde03146100ae578063095ea7b3146100cc57806318160ddd146100ef57806323b872dd14610106578063313ce56714610119575b600080fd5b6100b66101bb565b6040516100c39190610642565b60405180910390f35b6100df6100da3660046106ac565b610249565b60405190151581526020016100c3565b6100f860035481565b6040519081526020016100c3565b6100df6101143660046106d6565b6102b6565b6002546101269060ff1681565b60405160ff90911681526020016100c3565b61014b6101463660046106ac565b61045f565b005b6100f861015b366004610712565b60046020526000908152604090205481565b6100b66104d8565b6100df6101833660046106ac565b6104e5565b6100f8610196366004610734565b600560209081526000928352604080842090915290825290205481565b61014b6105b7565b600080546101c890610767565b80601f01602080910402602001604051908101604052809291908181526020018280546101f490610767565b80156102415780601f1061021657610100808354040283529160200191610241565b820191906000526020600020905b81548152906001019060200180831161022457829003601f168201915b505050505081565b3360008181526005602090815260408083206001600160a01b038716808552925280832085905551919290917f8c5be1e5ebec7d5bd14f71427d1e84f3dd0314c0f7b2291e5b200ac8c7c3b925906102a49086815260200190565b60405180910390a35060015b92915050565b6001600160a01b03831660009081526004602052604081205482111561031a5760405162461bcd60e51b8152602060048201526014602482015273496e73756666696369656e742062616c616e636560601b60448201526064015b60405180910390fd5b6001600160a01b03841660009081526005602090815260408083203384529091529020548211156103865760405162461bcd60e51b8152602060048201526016602482015275496e73756666696369656e7420616c6c6f77616e636560501b6044820152606401610311565b6001600160a01b038416600090815260046020526040812080548492906103ae9084906107b7565b90915550506001600160a01b038316600090815260046020526040812080548492906103db9084906107ca565b90915550506001600160a01b0384166000908152600560209081526040808320338452909152812080548492906104139084906107b7565b92505081905550826001600160a01b0316846001600160a01b03166000805160206108e88339815191528460405161044d91815260200190565b60405180910390a35060019392505050565b6001600160a01b038216600090815260046020526040812080548392906104879084906107ca565b9250508190555080600360008282546104a091906107ca565b90915550506040518181526001600160a01b038316906000906000805160206108e88339815191529060200160405180910390a35050565b600180546101c890610767565b3360009081526004602052604081205482111561053b5760405162461bcd60e51b8152602060048201526014602482015273496e73756666696369656e742062616c616e636560601b6044820152606401610311565b336000908152600460205260408120805484929061055a9084906107b7565b90915550506001600160a01b038316600090815260046020526040812080548492906105879084906107ca565b90915550506040518281526001600160a01b0384169033906000805160206108e8833981519152906020016102a4565b6002546000906105cb9060ff16600a6108c1565b6105d7906103e86108d0565b336000908152600460205260408120805492935083929091906105fb9084906107ca565b92505081905550806003600082825461061491906107ca565b909155505060405181815233906000906000805160206108e88339815191529060200160405180910390a350565b600060208083528351808285015260005b8181101561066f57858101830151858201604001528201610653565b506000604082860101526040601f19601f8301168501019250505092915050565b80356001600160a01b03811681146106a757600080fd5b919050565b600080604083850312156106bf57600080fd5b6106c883610690565b946020939093013593505050565b6000806000606084860312156106eb57600080fd5b6106f484610690565b925061070260208501610690565b9150604084013590509250925092565b60006020828403121561072457600080fd5b61072d82610690565b9392505050565b6000806040838503121561074757600080fd5b61075083610690565b915061075e60208401610690565b90509250929050565b600181811c9082168061077b57607f821691505b60208210810361079b57634e487b7160e01b600052602260045260246000fd5b50919050565b634e487b7160e01b600052601160045260246000fd5b818103818111156102b0576102b06107a1565b808201808211156102b0576102b06107a1565b600181815b808511156108185781600019048211156107fe576107fe6107a1565b8085161561080b57918102915b93841c93908002906107e2565b509250929050565b60008261082f575060016102b0565b8161083c575060006102b0565b8160018114610852576002811461085c57610878565b60019150506102b0565b60ff84111561086d5761086d6107a1565b50506001821b6102b0565b5060208310610133831016604e8410600b841016171561089b575081810a6102b0565b6108a583836107dd565b80600019048211156108b9576108b96107a1565b029392505050565b600061072d60ff841683610820565b80820281158282048414176102b0576102b06107a156feddf252ad1be2c89b69c2b068fc378daa952ba7f163c4a11628f55a4df523b3efa2646970667358221220fad7114d0b8de9779b016dbcf12fdc037870420ef7f3adb0f3501f24553e75f064736f6c63430008130033","linkReferences":{}},"methodIdentifiers":{"allowance(address,address)":"dd62ed3e","approve(address,uint256)":"095ea7b3","balanceOf(address)":"70a08231","decimals()":"313ce567","faucet()":"de5f72fd","mint(address,uint256)":"40c10f19","name()":"06fdde03","symbol()":"95d89b41","totalSupply()":"18160ddd","transfer(address,uint256)":"a9059cbb","transferFrom(address,address,uint256)":"23b872dd"},"id":20}